:100000000C9473000C949B000C949B000C949B002C
:100010000C949B000C949B000C949B000C949B00F4
:100020000C949B000C949B000C949B000C949B00E4
:100030000C949B000C949B000C94DD060C949B008C
:100040000C94CE0B0C949B000C94980E0C94CA0E3E
:100050000C949B000C949B000C949B000C949B00B4
:100060000C9441030C949B002C20556E75736564B1
:1000700020537461636B3A204C45445F426C696E57
:100080006B3A00436F756E743A2000446965000056
:100090000000080002010000030407000000000047
:1000A0000000000102040810204080010204081032
:1000B00020010204081020040404040404040402BF
:1000C00002020202020303030303030000000025EF
:1000D0000028002B0000000000240027002A000058
:1000E000D7019F02FA0E11241FBECFEFD8E0DEBF6A
:1000F000CDBF11E0A0E0B1E0E6E5F3E202C005907B
:100100000D92A439B107D9F723E0A4E9B1E001C009
:100110001D92A137B207E1F710E0C6EED0E004C0AF
:100120002297FE010E946A10C03ED107C9F70E94C3
:100130003E0F0C94A9110C94000080ED93E00E94F6
:10014000B60940E060E080EA91E00E94330B60E194
:1001500071E080EA91E00E94AE0F409198015091C9
:10016000990160919A0170919B012AE030E080EA48
:1001700091E00E94151041E060E080EA91E00E9469
:10018000330B68E171E080EA91E00E94AE0F80E0FD
:1001900090E00E94930A4AE050E0682F80EA91E0E4
:1001A0000E9422106CE171E080EA91E00E94AE0FA3
:1001B0000E94A2044AE050E0BC0180EA91E00E9463
:1001C0002910109298011092990110929A011092A0
:1001D0009B01B3CF80ED93E00E94B60963E870E025
:1001E00080ED92E00E948B0F40919C0150919D0107
:1001F00060919E0170919F012AE030E080ED92E0D5
:100200000E94151068E670E080ED92E00E948B0F6E
:1002100080919601909197010E94930A4AE050E0E4
:10022000682F80ED92E00E94221060E271E080ED84
:1002300092E00E94AE0F80919401909195010E94EE
:10024000930A4AE050E0682F80ED92E00E9422106D
:1002500066E271E080ED92E00E94AE0F80E090E0F7
:100260000E94930A4AE050E0682F80ED92E00E94DD
:1002700022106CE171E080ED92E00E94AE0F0E94CE
:10028000A2044AE050E0BC0180ED92E00E942F10F1
:1002900010929C0110929D0110929E0110929F015C
:1002A00099CF61E08DE00E94E40C61E08DE00E9456
:1002B0001D0D88EE91E00E94B60960E08DE00E947D
:1002C0001D0D88EE91E00E94B609EFCF26E040E8D0
:1002D00055E260E070E080ED92E00E94360E80EA28
:1002E00091E00E94CC0B80EA91E00E94D20AA12CFE
:1002F000B12CC12CD12C86E9E82E81E0F82E02E049
:1003000020E030E048EC50E06FE271E081E591E000
:100310000E942F07E12CF12C01E020E030E048ECB6
:1003200050E065E371E08AEE90E00E942F0794E9C7
:10033000E92E91E0F92E20E030E048EC50E06BE34C
:1003400071E08DE990E00E942F070E943B086BE866
:1003500070E080ED92E00E94B40FFFCFF89480919E
:100360009C0190919D01A0919E01B0919F010196E9
:10037000A11DB11D80939C0190939D01A0939E01AE
:10038000B0939F018091980190919901A0919A0159
:10039000B0919B010196A11DB11D8093980190938E
:1003A0009901A0939A01B0939B017894D7CF22E052
:1003B00040E167E280EA91E00C94A90A8091DC01B7
:1003C00090E02091DD01821B910908952091DD01CB
:1003D0008091DC01281750F4E22FF0E0E252FE4F4A
:1003E000808190E02F5F2093DD0108958FEF9FEFD4
:1003F0000895E091DD018091DC01E81730F4F0E030
:10040000E252FE4F808190E008958FEF9FEF0895B4
:100410000895CF92DF92EF92FF920F931F93CF93A5
:10042000DF937C01CB018A012091B801222389F05E
:10043000EB016B01C40ED51ECC15DD0569F0699189
:10044000D701ED91FC910190F081E02DC701099554
:10045000F3CF642F0E941803C801DF91CF911F9141
:100460000F91FF90EF90DF90CF900895CF93DF939F
:100470001F92CDB7DEB769832091B8012223D1F056
:100480002091B901203240F021E030E0FC013383BB
:10049000228380E090E015C08091BA01E82FF0E05F
:1004A000E554FE4F998190838F5F8093BA018093CA
:1004B000B90105C061E0CE0101960E94180381E0F8
:1004C00090E00F90DF91CF910895FC01138212828A
:1004D00048EE53E060E070E04483558366837783A1
:1004E00085E491E09183808308951092DD0110925C
:1004F000DC011092BA011092B9010C94A30281E0C0
:100500008093B8016093DB011092BA011092B90197
:1005100008950F93062F21E04091B9016BEB71E034
:100520008091DB010E94C1021092BA011092B901C0
:100530001092B8010F91089561E00C9489028CEA41
:1005400091E00C94650210926B0281E08093690245
:100550001092680261E082E10E941D0D61E083E17A
:100560000E941D0DE9EBF0E080818E7F8083808109
:100570008D7F808388E48093B80085E48093BC00FD
:1005800008950F93413208F04AC090916B02911187
:10059000FCCF92E090936B02009369029FEF9093DF
:1005A000FE011092430240934202FB0164E472E0B8
:1005B000DB019A2F961B941718F491919D93F9CF14
:1005C00010926A0290916A02880F892B80936A02C6
:1005D00080916802813061F41092680280916A0211
:1005E0008093BB008091BC0083FDF8CF85EC01C0F7
:1005F00085EE8093BC00222321F080916B02823033
:10060000E1F38091FE018F3F61F08091FE01803225
:1006100051F08091FE01803341F483E007C081E016
:1006200005C080E003C082E001C084E00F9108951E
:10063000613298F420916B02243089F46093200297
:10064000FC0182E292E0DC012A2F281B261718F415
:1006500021912D93F9CF80E0089581E0089582E003
:10066000089585ED8093BC008091BC0084FDFCCF93
:1006700010926B02089585EC8093BC0010926B027F
:1006800008951F920F920FB60F9211242F933F934C
:100690004F935F936F937F938F939F93AF93BF938A
:1006A000EF93FF938091B900887F803609F49EC054
:1006B00078F5883209F45DC090F4803109F456C0B1
:1006C00038F4882309F4F5C0883009F44FC0F5C028
:1006D000883109F44EC0803209F45FC0EEC0803426
:1006E00009F46AC058F4803309F457C0883309F01C
:1006F000E4C08093FE010E943B03DFC0803509F413
:100700004FC0883509F45DC0883409F0D6C0D3C025
:10071000883909F4C4C0A8F4883709F467C038F4EC
:10072000883609F463C0803709F460C0C6C08838D1
:1007300009F4B5C0803909F45FC0803809F0BDC044
:100740005BC0803B09F483C038F4803A09F466C08A
:10075000883A09F47CC0B1C0803C09F4A4C0883C4C
:1007600009F4A1C0883B09F487C0A7C080916A0240
:1007700010C09091430280914202981770F5E09169
:10078000430281E08E0F80934302F0E0EC5BFD4F6B
:1007900080818093BB0085EC83C08093FE018BC079
:1007A000E091430281E08E0F809343028091BB0071
:1007B000F0E0EC5BFD4F8083909143028091420218
:1007C0006BC0E091430281E08E0F809343028091E1
:1007D000BB00F0E0EC5BFD4F8083809169028111EA
:1007E0006AC081E08093680284EA5EC083E08093FF
:1007F0006B021092FF01CFCF8091FF01803208F091
:100800004EC0E091FF0181E08E0F8093FF01809147
:10081000BB00F0E0E050FE4F8083BDCF0E943B0361
:100820008091FF01803230F4E091FF01F0E0E05070
:10083000FE4F10826091FF0170E0E0916402F09140
:10084000650280E092E009951092FF0136C084E0D5
:1008500080936B021092210210922002E0916602B6
:10086000F0916702099580912002811105C081E015
:100870008093200210922202E091210281E08E0FEB
:1008800080932102F0E0EE5DFD4F80818093BB00FC
:100890009091210280912002981708F47CCF85E87E
:1008A0008093BC000AC085EC8093BC0010926B0260
:1008B00004C01092FE010E943103FF91EF91BF919D
:1008C000AF919F918F917F916F915F914F913F91E8
:1008D0002F910F900FBE0F901F901895EC01F89478
:1008E00061E08DE00E94E40C00E010E00C171D07B1
:1008F000F4F461E08DE00E941D0D80E899EAA3E028
:10090000B0E000000197A109B109D9F760E08DE0DE
:100910000E941D0D40E859EA63E070E0000041507C
:10092000510961097109D1F70F5F1F4FDFCF40E017
:100930005AE668E170E0000041505109610971090F
:10094000D1F7D2CF20916D0330916E0380E099E012
:100950002115310521F42091020130910301821B00
:10096000930B089581E090E00E946E0482E090E095
:100970000E946E0483E090E00E946E040C94AE012D
:1009800008950F931F93CF93DF9300D0CDB7DEB7B9
:1009900089839A830E947A0889819A810E946E10C5
:1009A0008C010E9440090115110511F40E94B60442
:1009B000C8010F900F90DF91CF911F910F91089573
:1009C000CF93DF9300D0CDB7DEB7009771F0898366
:1009D0009A830E947A0889819A810E9406110F9059
:1009E0000F90DF91CF910C9440090F900F90DF9101
:1009F000CF910895FC010396928381832FEF3FEFFF
:100A00003483238396838583908787831082089518
:100A1000FC01118610860895CF93DF939C01FB01A2
:100A2000DC011196CD91DC911297D383C2838C8126
:100A30009D81958384838C819D81DC0113967C93B9
:100A40006E9312977D836C8331872087F9018081B3
:100A50008F5F8083DF91CF9108950F931F93CF9382
:100A6000DF938C01FB01208131812F3F8FEF38070D
:100A700021F4E801AF81B8850EC0D8011396129613
:100A80008D919C911397EC0148815981241735076A
:100A900010F0DC01F4CF12968D919C911397938303
:100AA0008283EC01FD83EC83B583A4831396FC93CE
:100AB000EE93129711870087F80180818F5F808302
:100AC000DF91CF911F910F910895CF93DF93FC0198
:100AD000A085B1858281938124813581EC013D839C
:100AE0002C83C481D5819B838A8311968D919C919F
:100AF00012978E179F0721F41296DC93CE931197CD
:100B0000118610868C9181508C93DF91CF9108953E
:100B100031E1FC013083319722E220833197A3E356
:100B2000A08331976083319770833197108231971A
:100B300060E8608331971082319762E0608331977B
:100B400063E06083319764E06083319765E06083A0
:100B5000319766E06083319767E06083319768E0A2
:100B60006083319769E06083319760E160833197FA
:100B70003083319732E13083319733E130833197DD
:100B800034E13083319735E13083319736E130837A
:100B9000319737E13083319738E13083319739E14C
:100BA0003083319730E23083319731E230833197AF
:100BB0002083319723E220833197408331975083FC
:100BC000319726E22083319727E22083319728E26C
:100BD0002083319729E22083319720E320833197C6
:100BE00021E320838697089581E087BDEEE6F0E05B
:100BF000808182608083A091C502B091C602CD91B0
:100C0000CDBFDD91DEBFFF91EF91DF91CF91BF911D
:100C1000AF919F918F917F916F915F914F913F9194
:100C20002F911F910F91FF90EF90DF90CF90BF9089
:100C3000AF909F908F907F906F905F904F903F907C
:100C40002F901F900F900FBE0F90089581E0089590
:100C50000F920FB6F8940F921F9211242F923F9289
:100C60004F925F926F927F928F929F92AF92BF92BC
:100C7000CF92DF92EF92FF920F931F932F933F93A8
:100C80004F935F936F937F938F939F93AF93BF9394
:100C9000CF93DF93EF93FF93A091C502B091C6026B
:100CA0000DB60D920EB60D920E94160AA091C502C5
:100CB000B091C602CD91CDBFDD91DEBFFF91EF9126
:100CC000DF91CF91BF91AF919F918F917F916F9164
:100CD0005F914F913F912F911F910F91FF90EF9056
:100CE000DF90CF90BF90AF909F908F907F906F904C
:100CF0005F904F903F902F901F900F900FBE0F90DE
:100D000008950F920FB6F8940F921F9211242F920C
:100D10003F924F925F926F927F928F929F92AF928B
:100D2000BF92CF92DF92EF92FF920F931F932F9378
:100D30003F934F935F936F937F938F939F93AF9363
:100D4000BF93CF93DF93EF93FF93A091C502B09130
:100D5000C6020DB60D920EB60D920E94800881114A
:100D60000E94160AA091C502B091C602CD91CDBFD6
:100D7000DD91DEBFFF91EF91DF91CF91BF91AF91F8
:100D80009F918F917F916F915F914F913F912F91A3
:100D90001F910F91FF90EF90DF90CF90BF90AF9099
:100DA0009F908F907F906F905F904F903F902F908B
:100DB0001F900F900FBE0F9008950E948106189506
:100DC000E0918D02F0918E028081811103C08FEF3E
:100DD0009FEF0CC0E0918D02F0918E020580F681AC
:100DE000E02D0680F781E02D8281938190930701A9
:100DF000809306010895CF93DF93EC01E091C50243
:100E0000F091C60293838283809173029091740261
:100E10006091C5027091C602C817D90750F480913D
:100E20008B0290918C026E5F7F4FDF91CF910C947B
:100E30002D0580918D0290918E026E5F7F4F0E94F2
:100E40002D058091060190910701C817D90720F45C
:100E5000D0930701C0930601DF91CF9108953F928F
:100E60004F925F926F927F928F929F92AF92BF92BA
:100E7000CF92DF92EF92FF920F931F93CF93DF9366
:100E80004C01162F372E5A013901009711F40E9498
:100E9000B204802F90E0049714F00E94B20482E222
:100EA00090E00E94C104EC01009709F4D1C0C11484
:100EB000D10421F4C5010E94C10401C0C601988F6C
:100EC0008F8B009721F4CE010E94E004C1C0A501E0
:100ED00065EA70E00E94A21121E0A21AB1084F88D1
:100EE000588C4A0C5B1CE12FF32D80E090E0BF0191
:100EF00041919E01280F391FD90159964C93DB016E
:100F00002C91222321F001968830910581F718A2B7
:100F1000102F043008F013E01E8B19A36E01B2E00D
:100F2000CB0ED11CC6010E940805CE010C960E9472
:100F30000805D987C88784E090E0811B91099D87C7
:100F40008C87DB8BCA8BA301B401C2010E94880588
:100F500099838883E114F10419F0F701D183C083E8
:100F60000FB6F8940F92809175028F5F809375028F
:100F70008091C5029091C602892BA9F5D093C60233
:100F8000C093C502809175028130E1F581EA92E05B
:100F90000E94FA048AEA92E00E94FA0483EB92E04B
:100FA0000E94FA048CEB92E00E94FA0488E992E035
:100FB0000E94FA048FE892E00E94FA0482E892E02C
:100FC0000E94FA0489E792E00E94FA0488E992E01C
:100FD00090938E0280938D028FE892E090938C0222
:100FE00080938B020FC08091710281110BC0E09140
:100FF000C502F091C6028689081720F0D093C60278
:10100000C093C50280916D028F5F80936D028E89BF
:1010100090917202981710F480937202F9E08F9FFA
:10102000C0011124B6018F559D4F0E940C050F90F1
:101030000FBE80917102882349F0E091C502F091C2
:10104000C6028689801710F40E94280681E001C03C
:101050008FEFDF91CF911F910F91FF90EF90DF9075
:10106000CF90BF90AF909F908F907F906F905F9048
:101070004F903F900895AF92BF92CF92DF92EF9240
:10108000FF920F93A12CB12CC12CD12C86E7E82E16
:1010900082E0F82E00E020E030E044E650E061E538
:1010A00071E080EE99E00E942F07813081F4F8947E
:1010B0008093710210927402109273020F91FF904C
:1010C000EF90DF90CF90BF90AF900C94F40581111A
:1010D00009C00F91FF90EF90DF90CF90BF90AF903D
:1010E0000C94B2040F91FF90EF90DF90CF90BF90DF
:1010F000AF90089580916C028F5F80936C02089589
:10110000CF92DF92EF92FF920F931F93CF93DF93D3
:1011100080916C0281119CC0809173029091740245
:101120000196909374028093730200917302109160
:10113000740201151105F9F4E0918D02F0918E020F
:10114000808181110E94B20480918D0290918E0263
:1011500020918B0230918C0230938E0220938D026D
:1011600090938C0280938B0280916E028F5F8093AC
:101170006E020E94E0068091060190910701D12C39
:101180000817190708F44DC099E0C92EE0918D02A7
:10119000F0918E028081811107C08FEF9FEF9093B5
:1011A0000701809306013DC0E0918D02F0918E020F
:1011B0000580F681E02DC681D7812A813B81021707
:1011C000130728F430930701209306012AC07E01FB
:1011D00082E0E80EF11CC7010E9465058C899D899B
:1011E000892B21F0CE010C960E9465052E898091F5
:1011F0007202821710F420937202C29EC001112461
:10120000B7018F559D4F0E940C05E091C502F091EA
:10121000C6029E898689981708F4B8CFDD24D39436
:10122000B5CFE091C502F091C602E68989E0E89F5A
:10123000F0011124EF55FD4F8081823010F0DD2444
:10124000D3948091700281110BC00E94C00408C029
:10125000809170028F5F809370020E94C004D12C35
:1012600080916F02882311F0DD24D3948D2DDF91BE
:10127000CF911F910F91FF90EF90DF90CF90089545
:10128000EF92FF920F931F93CF93DF9380916C02A5
:10129000811102C00E94B2040FB6F8940F9280919F
:1012A0006C02815080936C0280916C02882311F053
:1012B00080E053C0809175028823D1F329E0F22E9B
:1012C000EE24E39480918202882351F1E091870219
:1012D000F0918802C681D781CE010C960E946505E7
:1012E0008E010E5F1F4FC8010E9465058E89909187
:1012F0007202981710F480937202F89EC0011124B4
:10130000B8018F559D4F0E940C05E091C502F091E8
:10131000C6029E8986899817A8F2E0926F02D2CF02
:1013200080917002811109C080916F02813009F0B3
:10133000BFCF0E94280681E010C0C1E080917002FA
:10134000882391F30E9480088111C0936F028091DD
:101350007002815080937002F1CF0F900FBEDF9129
:10136000CF911F910F91FF90EF9008950F931F93CE
:10137000CF93DF938C01009719F40E9428061BC0BD
:1013800080916C0281110E94B2040E947A08C0917F
:101390007302D0917402C00FD11F8091C502909149
:1013A000C60202960E946505CE010E94FB060E94BD
:1013B0004009882311F3DF91CF911F910F91089578
:1013C00080917802882349F10E947A08C0917902BD
:1013D0000E944009CC23A1F30FB6F8940F92E0913C
:1013E0007E02F0917F02C681D781CE0102960E94D3
:1013F0006505809175028150809375028091780215
:101400008150809378020F900FBE8F89988D0E9433
:10141000E004CE010E94E004D3CF8091A10282308B
:1014200010F00E9428060E94BE04CACFCF9380917C
:101430006C02882321F081E080936F0272C01092C9
:101440006F02A091C502B091C602E091C502F09171
:10145000C6022D913C918789908D8217930760F089
:101460006091C5027091C6028091C5029091C6023A
:10147000675E7F4F0E94BA04E091C502F091C602F8
:1014800044E150E066E571E08789908D0E949511F6
:10149000892B61F06091C5027091C6028091C502EE
:1014A0009091C602675E7F4F0E94BA04C9E0E09146
:1014B0007202CE9FF0011124EF55FD4F8081811102
:1014C0000CC080917202811102C00E94B20480910E
:1014D0007202815080937202EACFE091720289E039
:1014E000E89FF0011124EF55FD4FA181B2811296C2
:1014F0000D90BC91A02DB283A183CF010396A817B4
:10150000B90731F412968D919C9113979283818340
:101510000180F281E02D868197819093C6028093AD
:10152000C502CF910895009721F48091C502909152
:10153000C602DC015796ED91FC91589780E090E04F
:10154000DC012191253A21F40196A11DB11DF9CFAD
:101550000895FC01138212828EE691E091838083CC
:10156000648341872287138608951F93CF93DF9367
:10157000EC01162F6C818CEA91E00E947F02E091D1
:10158000AC01F091AD016B85612B0190F081E02DF4
:101590008CEA91E009958CEA91E0DF91CF911F915F
:1015A0000C949C0228E0FC01238760E00C94B50AAF
:1015B0001F93CF93DF93EC01162F64600E94B50A4E
:1015C00081E090E00E94750C612F6B7FCE010E943C
:1015D000B50A82E390E0DF91CF911F910C94750CD6
:1015E0001F93CF93DF93EC01162F0E94B50A612F52
:1015F000CE01DF91CF911F910C94D80AEF92FF9208
:101600001F93CF93DF931F92CDB7DEB77C01162FC8
:10161000607F642B49830E94F00A80E1189FB0012B
:1016200011244981642BC7010F90DF91CF911F9145
:10163000FF90EF900C94F00A41E00E94FE0A80E0D7
:1016400090E0089540E00C94FE0A61E00E94220BB5
:1016500080ED97E00C94750C62E00E94220B80ED07
:1016600097E00C94750CCF93DF93CDB7DEB7289736
:101670000FB6F894DEBF0FBECDBF28E0E8E0F1E082
:10168000DE01119601900D922A95E1F7FC0120856B
:10169000241710F44FEF420FFE013196E40FF11DB5
:1016A000E40FF11D2081260F2068622F28960FB6C7
:1016B000F894DEBF0FBECDBFDF91CF910C94220B0B
:1016C000FC016681262F246026836C600C94220B1B
:1016D000CF93DF93EC01423018F08D8188608D83C9
:1016E0004887222329F0413019F48D8184608D834D
:1016F00062E370E080E090E00E943B0C6B85CE01DD
:101700000E94B50A68EE73E080E090E00E943B0C16
:1017100060E3CE010E94F00A84E991E10E94750C19
:1017200060E3CE010E94F00A84E991E10E94750C09
:1017300060E3CE010E94F00A86E990E00E94750CF9
:1017400060E2CE010E94F00A6D816062CE010E94CB
:10175000220B84E08E83CE010E94600BCE010E949A
:10176000250B82E08F8366E0CE010E94220BCE0122
:10177000DF91CF910C942C0BCF93DF93EC018CEA8B
:1017800091E00E9475021D8220E04A856985CE01A4
:10179000DF91CF910C94680B0C94BC0B1F920F92AD
:1017A0000FB60F9211242F933F938F939F93AF9374
:1017B000BF938091C8029091C902A091CA02B091D2
:1017C000CB023091C70223E0230F2D3720F401967E
:1017D000A11DB11D05C026E8230F0296A11DB11D54
:1017E0002093C7028093C8029093C902A093CA02B3
:1017F000B093CB028091CC029091CD02A091CE0209
:10180000B091CF020196A11DB11D8093CC0290939F
:10181000CD02A093CE02B093CF02BF91AF919F9122
:101820008F913F912F910F900FBE0F901F901895A1
:101830003FB7F8948091CC029091CD02A091CE0256
:10184000B091CF0226B5A89B05C02F3F19F0019695
:10185000A11DB11D3FBF6627782F892F9A2F620FD8
:10186000711D811D911D42E0660F771F881F991F12
:101870004A95D1F708958F929F92AF92BF92CF92DF
:10188000DF92EF92FF926B017C010E94180C4B01DA
:101890005C01C114D104E104F104F1F00E9445108F
:1018A0000E94180C681979098A099B09683E7340DF
:1018B0008105910570F321E0C21AD108E108F10811
:1018C00088EE880E83E0981EA11CB11CC114D104BF
:1018D000E104F10429F7DDCFFF90EF90DF90CF9086
:1018E000BF90AF909F908F9008958230910538F00F
:1018F000880F991F880F991F05970197F1F7089591
:10190000789484B5826084BD84B5816084BD85B5DA
:10191000826085BD85B5816085BDEEE6F0E08081A1
:1019200081608083E1E8F0E01082808182608083C2
:10193000808181608083E0E8F0E080818160808345
:10194000E1EBF0E0808184608083E0EBF0E0808177
:1019500081608083EAE7F0E0808184608083808119
:1019600082608083808181608083808180688083C1
:101970001092C1000895833081F028F4813099F0ED
:101980008230A1F008958730A9F08830B9F0843012
:10199000D1F4809180008F7D03C0809180008F778B
:1019A00080938000089584B58F7702C084B58F7DC1
:1019B00084BD08958091B0008F7703C08091B000FE
:1019C0008F7D8093B0000895CF93DF9390E0FC016A
:1019D000ED55FF4F2491FC01E954FF4F849188237A
:1019E00049F190E0880F991FFC01EB52FF4FA59140
:1019F000B49185539F4FFC01C591D4919FB761115C
:101A000008C0F8948C91209582238C93888182233E
:101A10000AC0623051F4F8948C91322F30958323B0
:101A20008C938881822B888304C0F8948C91822BBC
:101A30008C939FBFDF91CF9108950F931F93CF9306
:101A4000DF931F92CDB7DEB7282F30E0F901E157C1
:101A5000FF4F8491F901ED55FF4F1491F901E954BD
:101A6000FF4F04910023C9F0882321F069830E946D
:101A7000BB0C6981E02FF0E0EE0FFF1FE553FF4F35
:101A8000A591B4919FB7F8948C91611103C0109502
:101A9000812301C0812B8C939FBF0F90DF91CF9149
:101AA0001F910F910895FC01818D228D90E0805C43
:101AB0009F4F821B91098F7399270895FC01918D87
:101AC000828D981731F0828DE80FF11D858D90E0A1
:101AD00008958FEF9FEF0895FC01918D828D9817E7
:101AE00061F0828DDF01A80FB11D5D968C91928D02
:101AF0009F5F9F73928F90E008958FEF9FEF0895FF
:101B000080EF9EE0892B49F080E090E0892B29F05E
:101B10000E94F00E81110C9400000895FC01848D48
:101B2000DF01A80FB11DA35ABF4F2C91848D90E007
:101B300001968F739927848FA689B7892C93A089E2
:101B4000B1898C9180648C93938D848D981306C099
:101B50000288F389E02D80818F7D80830895CF9363
:101B6000DF93EC01888D8823C9F0EA89FB898081A5
:101B700085FD05C0A889B9898C9186FD0FC00FB677
:101B800007FCF5CF808185FFF2CFA889B9898C91B8
:101B900085FFEDCFCE010E948E0DE7CFDF91CF9173
:101BA0000895CF92DF92FF920F931F93CF93DF930D
:101BB0001F92CDB7DEB76C0181E0D60158968C93A9
:101BC00058975B969C915B975C968C915C97981369
:101BD00007C05096ED91FC915197808185FD2EC0F4
:101BE000F601038D10E00F5F1F4F0F731127F02ECA
:101BF000F601848DF81211C00FB607FCF9CFD6019B
:101C00005096ED91FC915197808185FFF1CFC601EF
:101C100069830E948E0D6981EBCF838DE80FF11DE2
:101C2000E35AFF4F6083D6015B960C935B97529605
:101C3000ED91FC915397808180620CC0D60156963D
:101C4000ED91FC91579760835096ED91FC915197DF
:101C500080818064808381E090E00F90DF91CF915C
:101C60001F910F91FF90DF90CF900895BF92CF9278
:101C7000DF92EF92FF92CF93DF93EC016A017B0139
:101C8000B22EE889F98982E08083411581EE5807F8
:101C900061057105A1F060E079E08DE390E0A701B6
:101CA00096010E944610215031094109510956956B
:101CB000479537952795211580E1380798F0E889F1
:101CC000F989108260E874E88EE190E0A70196013E
:101CD0000E944610215031094109510956954795F6
:101CE00037952795EC85FD853083EE85FF8520832C
:101CF000188EEC89FD89B082EA89FB898081806138
:101D00008083EA89FB89808188608083EA89FB89F6
:101D1000808180688083EA89FB8980818F7D8083D0
:101D2000DF91CF91FF90EF90DF90CF90BF9008951B
:101D30001F920F920FB60F9211242F938F939F93A0
:101D4000EF93FF93E091E002F091E1028081E09156
:101D5000E602F091E70282FD12C090818091E902D3
:101D60008F5F8F732091EA02821751F0E091E902B0
:101D7000F0E0E053FD4F958F8093E90201C0808130
:101D8000FF91EF919F918F912F910F900FBE0F9028
:101D90001F9018951F920F920FB60F9211242F9338
:101DA0003F934F935F936F937F938F939F93AF93E3
:101DB000BF93EF93FF9380ED92E00E948E0DFF9111
:101DC000EF91BF91AF919F918F917F916F915F91B3
:101DD0004F913F912F910F900FBE0F901F9018952C
:101DE00080ED92E00E94530D21E0892B09F420E060
:101DF000822F08951092D3021092D20288EE93E0BF
:101E0000A0E0B0E08093D4029093D502A093D602D4
:101E1000B093D70286E791E09093D1028093D002ED
:101E200085EC90E09093DD028093DC0284EC90E0FE
:101E30009093DF028093DE0280EC90E09093E102C9
:101E40008093E00281EC90E09093E3028093E202C1
:101E500082EC90E09093E5028093E40286EC90E0BF
:101E60009093E7028093E6021092E9021092EA0250
:101E70001092EB021092EC02089508950E94800CDB
:101E80000E943D0F0E946601C0E8DDE00E94AE01A5
:101E90002097E1F30E94800DF9CFCF92DF92EF926D
:101EA000FF920F931F93CF93DF937C016A01EB01A5
:101EB00000E010E00C151D0571F06991D701ED915E
:101EC000FC910190F081E02DC7010995892B19F053
:101ED0000F5F1F4FEFCFC801DF91CF911F910F917F
:101EE000FF90EF90DF90CF9008956115710581F01C
:101EF000DB010D900020E9F7AD0141505109461B6F
:101F0000570BDC01ED91FC910280F381E02D0994E7
:101F100080E090E00895EF92FF920F931F93CF938C
:101F2000DF938C017B01C0E0D0E0F701EC0FFD1FD7
:101F30006491662359F0F801A081B181ED91FC9183
:101F4000C8010995892B11F02196EFCFCE01DF91C1
:101F5000CF911F910F91FF90EF9008950C94750F02
:101F600062E871E00C94750F0F931F93CF93DF938A
:101F7000EC010E948B0F8C01CE010E94B00F800FEC
:101F8000911FDF91CF911F910F9108958F929F9292
:101F9000AF92BF92DF92EF92FF920F931F93CF9376
:101FA000DF93CDB7DEB7A1970FB6F894DEBF0FBEB3
:101FB000CDBF7C01F42FD52ECB0119A2223008F41D
:101FC0002AE08E010F5D1F4F822E912CA12CB12C87
:101FD0006F2F7D2DA50194010E944610F22FD32E64
:101FE000CA01015011096A3014F4E0E301C0E7E3CB
:101FF000E60FD801EC93232B242B252B49F7B801AE
:10200000C7010E94750FA1960FB6F894DEBF0FBEF0
:10201000CDBFDF91CF911F910F91FF90EF90DF9097
:10202000BF90AF909F908F9008952115310541F496
:10203000DC01ED91FC910190F081E02D642F099479
:102040000C94C60F9A01462F50E060E070E00C94AB
:1020500015109A01AB0160E070E00C9415100F931D
:102060001F93CF93DF93EC019A01AB0160E070E026
:102070000E9415108C01CE010E94B00F800F911F9D
:10208000DF91CF911F910F9108950895A1E21A2E2B
:10209000AA1BBB1BFD010DC0AA1FBB1FEE1FFF1F0C
:1020A000A217B307E407F50720F0A21BB30BE40B5C
:1020B000F50B661F771F881F991F1A9469F76095A3
:1020C0007095809590959B01AC01BD01CF0108955D
:1020D000EE0FFF1F0590F491E02D0994CF93DF934D
:1020E0008230910510F482E090E0E0916F03F0916E
:1020F000700320E030E0A0E0B0E0309739F140819B
:10210000518148175907B8F04817590771F482816F
:102110009381109729F013969C938E9312972CC05D
:102120009093700380936F0327C02115310531F020
:102130004217530718F0A901DB0101C0EF019A0112
:10214000BD01DF010280F381E02DD7CF21153105DC
:10215000F9F0281B390B2430310580F48A819B81EA
:102160006115710521F0FB019383828304C0909374
:10217000700380936F03FE01329644C0FE01E20FAC
:10218000F31F8193919322503109398328833AC0F8
:1021900020916D0330916E03232B41F420910201B5
:1021A0003091030130936E0320936D032091000161
:1021B000309101012115310541F42DB73EB7409111
:1021C000040150910501241B350BE0916D03F09142
:1021D0006E03E217F307A0F42E1B3F0B28173907F5
:1021E00078F0AC014E5F5F4F2417350748F04E0F73
:1021F0005F1F50936E0340936D038193919302C0D0
:10220000E0E0F0E0CF01DF91CF910895CF93DF932D
:10221000009709F487C0FC01329713821282C091A3
:102220006F03D0917003209781F420813181280FB2
:10223000391F80916D0390916E038217930779F592
:10224000F0936E03E0936D036DC0DE0120E030E09B
:10225000AE17BF0750F412964D915C9113979D01F4
:102260004115510509F1DA01F3CFB383A28340810F
:102270005181840F951F8A179B0771F48D919C9152
:102280001197840F951F02969183808312968D91EA
:102290009C911397938382832115310529F4F09340
:1022A0007003E0936F033EC0D9011396FC93EE9345
:1022B00012974D915D91A40FB51FEA17FB0779F4B2
:1022C00080819181840F951F0296D90111969C936C
:1022D0008E938281938113969C938E931297E0E064
:1022E000F0E08A819B81009719F0FE01EC01F9CFA3
:1022F000CE01029628813981820F931F20916D03B0
:1023000030916E032817390769F4309729F4109239
:10231000700310926F0302C013821282D0936E0377
:10232000C0936D03DF91CF910895FB01DC0104C0E0
:102330008D910190801921F441505040C8F7881BBD
:10234000990B0895DC0101C06D9341505040E0F7B6
:062350000895F894FFCF90
:10235600000071038000FFFF0000400014005400DD
:10236600436F756E743A200054333A0020483A00A1
:10237600204C43443A002053657269616C3A00541C
:1023860061736B31005461736B32005461736B334C
:10239600000000000036020902DE01E601F901082C
:1023A6000249444C4500A5A5A5A5A5A5A5A5A5A595
:1023B600A5A5A5A5A5A5A5A5A5A5000000001C0B7E
:1023C6004D0F00000000D10D4D0F530D6C0D5E0D2D
:1023D600AF0D0D0A006E616E00696E66006F76665F
:0423E600002E0000C5
:00000001FF
